{
  "contractName": "AttendanceSystem",
  "abi": [
    {
      "anonymous": false,
      "inputs": [
        {
          "indexed": false,
          "internalType": "uint256",
          "name": "classId",
          "type": "uint256"
        },
        {
          "indexed": false,
          "internalType": "address",
          "name": "studentAddress",
          "type": "address"
        },
        {
          "indexed": false,
          "internalType": "uint256",
          "name": "timestamp",
          "type": "uint256"
        }
      ],
      "name": "AttendanceMarked",
      "type": "event"
    },
    {
      "anonymous": false,
      "inputs": [
        {
          "indexed": false,
          "internalType": "uint256",
          "name": "classId",
          "type": "uint256"
        },
        {
          "indexed": false,
          "internalType": "string",
          "name": "className",
          "type": "string"
        }
      ],
      "name": "ClassroomCreated",
      "type": "event"
    },
    {
      "anonymous": false,
      "inputs": [
        {
          "indexed": false,
          "internalType": "uint256",
          "name": "classId",
          "type": "uint256"
        },
        {
          "indexed": false,
          "internalType": "address",
          "name": "studentAddress",
          "type": "address"
        },
        {
          "indexed": false,
          "internalType": "string",
          "name": "name",
          "type": "string"
        },
        {
          "indexed": false,
          "internalType": "string",
          "name": "regNo",
          "type": "string"
        }
      ],
      "name": "StudentAdded",
      "type": "event"
    },
    {
      "inputs": [],
      "name": "classroomCount",
      "outputs": [
        {
          "internalType": "uint256",
          "name": "",
          "type": "uint256"
        }
      ],
      "stateMutability": "view",
      "type": "function",
      "constant": true
    },
    {
      "inputs": [
        {
          "internalType": "uint256",
          "name": "",
          "type": "uint256"
        }
      ],
      "name": "classrooms",
      "outputs": [
        {
          "internalType": "string",
          "name": "className",
          "type": "string"
        },
        {
          "internalType": "uint256",
          "name": "attendanceCount",
          "type": "uint256"
        }
      ],
      "stateMutability": "view",
      "type": "function",
      "constant": true
    },
    {
      "inputs": [
        {
          "internalType": "string",
          "name": "",
          "type": "string"
        }
      ],
      "name": "regNoToAddress",
      "outputs": [
        {
          "internalType": "address",
          "name": "",
          "type": "address"
        }
      ],
      "stateMutability": "view",
      "type": "function",
      "constant": true
    },
    {
      "inputs": [
        {
          "internalType": "string",
          "name": "_className",
          "type": "string"
        }
      ],
      "name": "createClassroom",
      "outputs": [],
      "stateMutability": "nonpayable",
      "type": "function"
    },
    {
      "inputs": [
        {
          "internalType": "uint256",
          "name": "_classId",
          "type": "uint256"
        },
        {
          "internalType": "string",
          "name": "_name",
          "type": "string"
        },
        {
          "internalType": "string",
          "name": "_regNo",
          "type": "string"
        }
      ],
      "name": "addStudentToClass",
      "outputs": [],
      "stateMutability": "nonpayable",
      "type": "function"
    },
    {
      "inputs": [
        {
          "internalType": "string",
          "name": "_regNo",
          "type": "string"
        }
      ],
      "name": "getStudentAddressByRegNo",
      "outputs": [
        {
          "internalType": "address",
          "name": "",
          "type": "address"
        }
      ],
      "stateMutability": "view",
      "type": "function",
      "constant": true
    },
    {
      "inputs": [
        {
          "internalType": "uint256",
          "name": "_classId",
          "type": "uint256"
        },
        {
          "internalType": "address",
          "name": "_student",
          "type": "address"
        }
      ],
      "name": "markAttendance",
      "outputs": [],
      "stateMutability": "nonpayable",
      "type": "function"
    },
    {
      "inputs": [
        {
          "internalType": "uint256",
          "name": "_classId",
          "type": "uint256"
        }
      ],
      "name": "getAttendanceCount",
      "outputs": [
        {
          "internalType": "uint256",
          "name": "",
          "type": "uint256"
        }
      ],
      "stateMutability": "view",
      "type": "function",
      "constant": true
    },
    {
      "inputs": [
        {
          "internalType": "uint256",
          "name": "_classId",
          "type": "uint256"
        },
        {
          "internalType": "address",
          "name": "_student",
          "type": "address"
        }
      ],
      "name": "getLastAttendanceTime",
      "outputs": [
        {
          "internalType": "uint256",
          "name": "",
          "type": "uint256"
        }
      ],
      "stateMutability": "view",
      "type": "function",
      "constant": true
    },
    {
      "inputs": [
        {
          "internalType": "uint256",
          "name": "_classId",
          "type": "uint256"
        }
      ],
      "name": "getClassroom",
      "outputs": [
        {
          "internalType": "string",
          "name": "",
          "type": "string"
        },
        {
          "internalType": "address[]",
          "name": "",
          "type": "address[]"
        }
      ],
      "stateMutability": "view",
      "type": "function",
      "constant": true
    },
    {
      "inputs": [
        {
          "internalType": "uint256",
          "name": "_classId",
          "type": "uint256"
        }
      ],
      "name": "getMarkedAttendanceStudents",
      "outputs": [
        {
          "internalType": "address[]",
          "name": "",
          "type": "address[]"
        },
        {
          "internalType": "string[]",
          "name": "",
          "type": "string[]"
        }
      ],
      "stateMutability": "view",
      "type": "function",
      "constant": true
    }
  ],
  "bytecode": "0x608060405234801561001057600080fd5b50611d42806100206000396000f3fe608060405234801561001057600080fd5b50600436106100a95760003560e01c806333b3f2f61161007157806333b3f2f61461017757806360e48105146101a75780637dc9bd3b146101c3578063a0229943146101f4578063b65c8b0614610224578063eb7546c614610242576100a9565b806302bd3163146100ae578063086eafae146100de5780631ae4815e1461010f5780631e7884ee1461012b578063241dcb3e1461015b575b600080fd5b6100c860048036038101906100c391906112c7565b610273565b6040516100d591906117da565b60405180910390f35b6100f860048036038101906100f39190611308565b6102bb565b604051610106929190611863565b60405180910390f35b61012960048036038101906101249190611331565b610367565b005b61014560048036038101906101409190611308565b6104eb565b6040516101529190611913565b60405180910390f35b6101756004803603810190610170919061136d565b61054e565b005b610191600480360381019061018c91906112c7565b6108ff565b60405161019e91906117da565b60405180910390f35b6101c160048036038101906101bc91906112c7565b610948565b005b6101dd60048036038101906101d89190611308565b6109d6565b6040516101eb9291906117f5565b60405180910390f35b61020e60048036038101906102099190611331565b610f65565b60405161021b9190611913565b60405180910390f35b61022c611009565b6040516102399190611913565b60405180910390f35b61025c60048036038101906102579190611308565b61100f565b60405161026a92919061182c565b60405180910390f35b600060018260405161028591906117c3565b908152602001604051809103902060009054906101000a900473ffffffffffffffffffffffffffffffffffffffff169050919050565b60006020528060005260406000206000915090508060000180546102de90611bc5565b80601f016020809104026020016040519081016040528092919081815260200182805461030a90611bc5565b80156103575780601f1061032c57610100808354040283529160200191610357565b820191906000526020600020905b81548152906001019060200180831161033a57829003601f168201915b5050505050908060030154905082565b60025482106103ab576040517f08c379a00000000000000000000000000000000000000000000000000000000081526004016103a2906118b3565b60405180910390fd5b6000806000848152602001908152602001600020905060008160010160008473ffffffffffffffffffffffffffffffffffffffff1673ffffffffffffffffffffffffffffffffffffffff168152602001908152602001600020905060008160020154148061042b5750620151808160020154426104289190611b13565b10155b61046a576040517f08c379a0000000000000000000000000000000000000000000000000000000008152600401610461906118d3565b60405180910390fd5b42816002018190555060018160030160006101000a81548160ff0219169083151502179055508160030160008154809291906104a590611bf7565b91905055507f58db8ff11b1f2ad89b5a611a7f0c48c73c8579db530ad0fd39df6523bc8672618484426040516104dd93929190611981565b60405180910390a150505050565b60006002548210610531576040517f08c379a0000000000000000000000000000000000000000000000000000000008152600401610528906118b3565b60405180910390fd5b600080838152602001908152602001600020600301549050919050565b6002548310610592576040517f08c379a0000000000000000000000000000000000000000000000000000000008152600401610589906118b3565b60405180910390fd5b600082511180156105a4575060008151115b6105e3576040517f08c379a00000000000000000000000000000000000000000000000000000000081526004016105da906118f3565b60405180910390fd5b6000806000858152602001908152602001600020905060005b8160020180549050811015610726578280519060200120826001016000846002018481548110610655577f4e487b7100000000000000000000000000000000000000000000000000000000600052603260045260246000fd5b9060005260206000200160009054906101000a900473ffffffffffffffffffffffffffffffffffffffff1673ffffffffffffffffffffffffffffffffffffffff1673ffffffffffffffffffffffffffffffffffffffff1681526020019081526020016000206001016040516106ca91906117ac565b60405180910390201415610713576040517f08c379a000000000000000000000000000000000000000000000000000000000815260040161070a90611893565b60405180910390fd5b808061071e90611bf7565b9150506105fc565b506000339050604051806080016040528085815260200184815260200160008152602001600015158152508260010160008373ffffffffffffffffffffffffffffffffffffffff1673ffffffffffffffffffffffffffffffffffffffff16815260200190815260200160002060008201518160000190805190602001906107ae929190611192565b5060208201518160010190805190602001906107cb929190611192565b506040820151816002015560608201518160030160006101000a81548160ff02191690831515021790555090505081600201819080600181540180825580915050600190039060005260206000200160009091909190916101000a81548173ffffffffffffffffffffffffffffffffffffffff021916908373ffffffffffffffffffffffffffffffffffffffff1602179055508060018460405161086f91906117c3565b908152602001604051809103902060006101000a81548173ffffffffffffffffffffffffffffffffffffffff021916908373ffffffffffffffffffffffffffffffffffffffff1602179055507fb37a79ec4cb4ca7eb517cbed84b2201d6478797a9ebc4a4987f2c4c0dc4eddc4858286866040516108f0949392919061192e565b60405180910390a15050505050565b6001818051602081018201805184825260208301602085012081835280955050505050506000915054906101000a900473ffffffffffffffffffffffffffffffffffffffff1681565b8060008060025481526020019081526020016000206000019080519060200190610973929190611192565b506002600081548092919061098790611bf7565b91905055507f9a1c9f10d6ee756c0a71f88b8991db99f6866f27ae438706a3ea95076df295db60016002546109bc9190611b13565b826040516109cb9291906119b8565b60405180910390a150565b6060806002548310610a1d576040517f08c379a0000000000000000000000000000000000000000000000000000000008152600401610a14906118b3565b60405180910390fd5b600080600085815260200190815260200160002090506000805b8260020180549050811015610b2557826001016000846002018381548110610a88577f4e487b7100000000000000000000000000000000000000000000000000000000600052603260045260246000fd5b9060005260206000200160009054906101000a900473ffffffffffffffffffffffffffffffffffffffff1673ffffffffffffffffffffffffffffffffffffffff1673ffffffffffffffffffffffffffffffffffffffff16815260200190815260200160002060030160009054906101000a900460ff1615610b12578180610b0e90611bf7565b9250505b8080610b1d90611bf7565b915050610a37565b5060008167ffffffffffffffff811115610b68577f4e487b7100000000000000000000000000000000000000000000000000000000600052604160045260246000fd5b604051908082528060200260200182016040528015610b965781602001602082028036833780820191505090505b50905060008267ffffffffffffffff811115610bdb577f4e487b7100000000000000000000000000000000000000000000000000000000600052604160045260246000fd5b604051908082528060200260200182016040528015610c0e57816020015b6060815260200190600190039081610bf95790505b5090506000805b8560020180549050811015610f5457856001016000876002018381548110610c66577f4e487b7100000000000000000000000000000000000000000000000000000000600052603260045260246000fd5b9060005260206000200160009054906101000a900473ffffffffffffffffffffffffffffffffffffffff1673ffffffffffffffffffffffffffffffffffffffff1673ffffffffffffffffffffffffffffffffffffffff16815260200190815260200160002060030160009054906101000a900460ff1615610f4157856002018181548110610d1d577f4e487b7100000000000000000000000000000000000000000000000000000000600052603260045260246000fd5b9060005260206000200160009054906101000a900473ffffffffffffffffffffffffffffffffffffffff16848381518110610d81577f4e487b7100000000000000000000000000000000000000000000000000000000600052603260045260246000fd5b602002602001019073ffffffffffffffffffffffffffffffffffffffff16908173ffffffffffffffffffffffffffffffffffffffff1681525050856001016000876002018381548110610dfd577f4e487b7100000000000000000000000000000000000000000000000000000000600052603260045260246000fd5b9060005260206000200160009054906101000a900473ffffffffffffffffffffffffffffffffffffffff1673ffffffffffffffffffffffffffffffffffffffff1673ffffffffffffffffffffffffffffffffffffffff1681526020019081526020016000206001018054610e7090611bc5565b80601f0160208091040260200160405190810160405280929190818152602001828054610e9c90611bc5565b8015610ee95780601f10610ebe57610100808354040283529160200191610ee9565b820191906000526020600020905b815481529060010190602001808311610ecc57829003601f168201915b5050505050838381518110610f27577f4e487b7100000000000000000000000000000000000000000000000000000000600052603260045260246000fd5b60200260200101819052508180610f3d90611bf7565b9250505b8080610f4c90611bf7565b915050610c15565b508282965096505050505050915091565b60006002548310610fab576040517f08c379a0000000000000000000000000000000000000000000000000000000008152600401610fa2906118b3565b60405180910390fd5b60008084815260200190815260200160002060010160008373ffffffffffffffffffffffffffffffffffffffff1673ffffffffffffffffffffffffffffffffffffffff16815260200190815260200160002060020154905092915050565b60025481565b6060806002548310611056576040517f08c379a000000000000000000000000000000000000000000000000000000000815260040161104d906118b3565b60405180910390fd5b60008060008581526020019081526020016000209050806000018160020181805461108090611bc5565b80601f01602080910402602001604051908101604052809291908181526020018280546110ac90611bc5565b80156110f95780601f106110ce576101008083540402835291602001916110f9565b820191906000526020600020905b8154815290600101906020018083116110dc57829003601f168201915b505050505091508080548060200260200160405190810160405280929190818152602001828054801561118157602002820191906000526020600020905b8160009054906101000a900473ffffffffffffffffffffffffffffffffffffffff1673ffffffffffffffffffffffffffffffffffffffff1681526020019060010190808311611137575b505050505090509250925050915091565b82805461119e90611bc5565b90600052602060002090601f0160209004810192826111c05760008555611207565b82601f106111d957805160ff1916838001178555611207565b82800160010185558215611207579182015b828111156112065782518255916020019190600101906111eb565b5b5090506112149190611218565b5090565b5b80821115611231576000816000905550600101611219565b5090565b600061124861124384611a19565b6119e8565b90508281526020810184848401111561126057600080fd5b61126b848285611b83565b509392505050565b60008135905061128281611cde565b92915050565b600082601f83011261129957600080fd5b81356112a9848260208601611235565b91505092915050565b6000813590506112c181611cf5565b92915050565b6000602082840312156112d957600080fd5b600082013567ffffffffffffffff8111156112f357600080fd5b6112ff84828501611288565b91505092915050565b60006020828403121561131a57600080fd5b6000611328848285016112b2565b91505092915050565b6000806040838503121561134457600080fd5b6000611352858286016112b2565b925050602061136385828601611273565b9150509250929050565b60008060006060848603121561138257600080fd5b6000611390868287016112b2565b935050602084013567ffffffffffffffff8111156113ad57600080fd5b6113b986828701611288565b925050604084013567ffffffffffffffff8111156113d657600080fd5b6113e286828701611288565b9150509250925092565b60006113f88383611418565b60208301905092915050565b60006114108383611588565b905092915050565b61142181611b47565b82525050565b61143081611b47565b82525050565b600061144182611a7e565b61144b8185611ab9565b935061145683611a49565b8060005b8381101561148757815161146e88826113ec565b975061147983611a9f565b92505060018101905061145a565b5085935050505092915050565b600061149f82611a89565b6114a98185611aca565b9350836020820285016114bb85611a59565b8060005b858110156114f757848403895281516114d88582611404565b94506114e383611aac565b925060208a019950506001810190506114bf565b50829750879550505050505092915050565b6000815461151681611bc5565b6115208186611adb565b9450600182166000811461153b576001811461154c5761157f565b60ff1983168652818601935061157f565b61155585611a69565b60005b8381101561157757815481890152600182019150602081019050611558565b838801955050505b50505092915050565b600061159382611a94565b61159d8185611ae6565b93506115ad818560208601611b92565b6115b681611ccd565b840191505092915050565b60006115cc82611a94565b6115d68185611af7565b93506115e6818560208601611b92565b6115ef81611ccd565b840191505092915050565b600061160582611a94565b61160f8185611b08565b935061161f818560208601611b92565b80840191505092915050565b6000611638604683611af7565b91507f53747564656e742077697468207468697320726567697374726174696f6e206e60008301527f756d62657220616c72656164792065786973747320696e207468697320636c6160208301527f7373726f6f6d00000000000000000000000000000000000000000000000000006040830152606082019050919050565b60006116c4601883611af7565b91507f436c617373726f6f6d20646f6573206e6f7420657869737400000000000000006000830152602082019050919050565b6000611704602983611af7565b91507f417474656e64616e636520616c7265616479206d61726b65642077697468696e60008301527f20323420686f75727300000000000000000000000000000000000000000000006020830152604082019050919050565b600061176a601783611af7565b91507f496e76616c69642073747564656e742064657461696c730000000000000000006000830152602082019050919050565b6117a681611b79565b82525050565b60006117b88284611509565b915081905092915050565b60006117cf82846115fa565b915081905092915050565b60006020820190506117ef6000830184611427565b92915050565b6000604082019050818103600083015261180f8185611436565b905081810360208301526118238184611494565b90509392505050565b6000604082019050818103600083015261184681856115c1565b9050818103602083015261185a8184611436565b90509392505050565b6000604082019050818103600083015261187d81856115c1565b905061188c602083018461179d565b9392505050565b600060208201905081810360008301526118ac8161162b565b9050919050565b600060208201905081810360008301526118cc816116b7565b9050919050565b600060208201905081810360008301526118ec816116f7565b9050919050565b6000602082019050818103600083015261190c8161175d565b9050919050565b6000602082019050611928600083018461179d565b92915050565b6000608082019050611943600083018761179d565b6119506020830186611427565b818103604083015261196281856115c1565b9050818103606083015261197681846115c1565b905095945050505050565b6000606082019050611996600083018661179d565b6119a36020830185611427565b6119b0604083018461179d565b949350505050565b60006040820190506119cd600083018561179d565b81810360208301526119df81846115c1565b90509392505050565b6000604051905081810181811067ffffffffffffffff82111715611a0f57611a0e611c9e565b5b8060405250919050565b600067ffffffffffffffff821115611a3457611a33611c9e565b5b601f19601f8301169050602081019050919050565b6000819050602082019050919050565b6000819050602082019050919050565b60008190508160005260206000209050919050565b600081519050919050565b600081519050919050565b600081519050919050565b6000602082019050919050565b6000602082019050919050565b600082825260208201905092915050565b600082825260208201905092915050565b600081905092915050565b600082825260208201905092915050565b600082825260208201905092915050565b600081905092915050565b6000611b1e82611b79565b9150611b2983611b79565b925082821015611b3c57611b3b611c40565b5b828203905092915050565b6000611b5282611b59565b9050919050565b600073ffffffffffffffffffffffffffffffffffffffff82169050919050565b6000819050919050565b82818337600083830152505050565b60005b83811015611bb0578082015181840152602081019050611b95565b83811115611bbf576000848401525b50505050565b60006002820490506001821680611bdd57607f821691505b60208210811415611bf157611bf0611c6f565b5b50919050565b6000611c0282611b79565b91507fffffffffffffffffffffffffffffffffffffffffffffffffffffffffffffffff821415611c3557611c34611c40565b5b600182019050919050565b7f4e487b7100000000000000000000000000000000000000000000000000000000600052601160045260246000fd5b7f4e487b7100000000000000000000000000000000000000000000000000000000600052602260045260246000fd5b7f4e487b7100000000000000000000000000000000000000000000000000000000600052604160045260246000fd5b6000601f19601f8301169050919050565b611ce781611b47565b8114611cf257600080fd5b50565b611cfe81611b79565b8114611d0957600080fd5b5056fea264697066735822122076990977a1a3cb33de7a49a99e2db6b43943d01a7e99171bc0dfa02c6a0ce1b764736f6c63430008000033",
  "immutableReferences": {},
  "source": "// SPDX-License-Identifier: MIT\r\npragma solidity ^0.8.0;\r\n\r\ncontract AttendanceSystem {\r\n    struct Student {\r\n        string name;\r\n        string regNo;\r\n        uint256 lastAttendanceTime;\r\n        bool isVerified;\r\n    }\r\n\r\n    struct Classroom {\r\n        string className;\r\n        mapping(address => Student) students;\r\n        address[] studentAddresses;\r\n        uint256 attendanceCount;\r\n    }\r\n\r\n    mapping(uint256 => Classroom) public classrooms;\r\n    mapping(string => address) public regNoToAddress; // Mapping to store student address by regNo\r\n    uint256 public classroomCount;\r\n\r\n    event ClassroomCreated(uint256 classId, string className);\r\n    event StudentAdded(uint256 classId, address studentAddress, string name, string regNo);\r\n    event AttendanceMarked(uint256 classId, address studentAddress, uint256 timestamp);\r\n\r\n    // Create Classroom\r\n    function createClassroom(string memory _className) public {\r\n        classrooms[classroomCount].className = _className;\r\n        classroomCount++;\r\n        emit ClassroomCreated(classroomCount - 1, _className);\r\n    }\r\n\r\n    // Add student to classroom\r\n    function addStudentToClass(uint256 _classId, string memory _name, string memory _regNo) public {\r\n        require(_classId < classroomCount, \"Classroom does not exist\");\r\n        require(bytes(_name).length > 0 && bytes(_regNo).length > 0, \"Invalid student details\");\r\n        \r\n        Classroom storage classroom = classrooms[_classId];\r\n\r\n        // Ensure that the registration number is unique within the classroom\r\n        for (uint256 i = 0; i < classroom.studentAddresses.length; i++) {\r\n            if (keccak256(bytes(classroom.students[classroom.studentAddresses[i]].regNo)) == keccak256(bytes(_regNo))) {\r\n                revert(\"Student with this registration number already exists in this classroom\");\r\n            }\r\n        }\r\n\r\n        address studentAddress = msg.sender;  // Use msg.sender as the student's unique address\r\n\r\n        // Store the student data\r\n        classroom.students[studentAddress] = Student(_name, _regNo, 0, false);\r\n        classroom.studentAddresses.push(studentAddress);\r\n\r\n        // Map the registration number to the student's address\r\n        regNoToAddress[_regNo] = studentAddress;\r\n\r\n        emit StudentAdded(_classId, studentAddress, _name, _regNo);\r\n    }\r\n\r\n    // Get student address by registration number\r\n    function getStudentAddressByRegNo(string memory _regNo) public view returns (address) {\r\n        return regNoToAddress[_regNo];\r\n    }\r\n\r\n    // Mark attendance for student\r\n    function markAttendance(uint256 _classId, address _student) public {\r\n        require(_classId < classroomCount, \"Classroom does not exist\");\r\n        Classroom storage classroom = classrooms[_classId];\r\n        Student storage student = classroom.students[_student];\r\n        \r\n        require(student.lastAttendanceTime == 0 || block.timestamp - student.lastAttendanceTime >= 1 days, \"Attendance already marked within 24 hours\");\r\n        student.lastAttendanceTime = block.timestamp;\r\n        student.isVerified = true;\r\n        \r\n        classroom.attendanceCount++;\r\n        emit AttendanceMarked(_classId, _student, block.timestamp);\r\n    }\r\n\r\n    // Get attendance count for classroom\r\n    function getAttendanceCount(uint256 _classId) public view returns (uint256) {\r\n        require(_classId < classroomCount, \"Classroom does not exist\");\r\n        return classrooms[_classId].attendanceCount;\r\n    }\r\n\r\n    // Get last attendance time for student\r\n    function getLastAttendanceTime(uint256 _classId, address _student) public view returns (uint256) {\r\n        require(_classId < classroomCount, \"Classroom does not exist\");\r\n        return classrooms[_classId].students[_student].lastAttendanceTime;\r\n    }\r\n\r\n    // Get Classroom details\r\n    function getClassroom(uint256 _classId) public view returns (string memory, address[] memory) {\r\n        require(_classId < classroomCount, \"Classroom does not exist\");\r\n        Classroom storage classroom = classrooms[_classId];\r\n        return (classroom.className, classroom.studentAddresses);\r\n    }\r\n\r\n    // Get marked attendance students for classroom (including regNo)\r\n    function getMarkedAttendanceStudents(uint256 _classId) public view returns (address[] memory, string[] memory) {\r\n        require(_classId < classroomCount, \"Classroom does not exist\");\r\n        Classroom storage classroom = classrooms[_classId];\r\n\r\n        uint256 count = 0;\r\n        for (uint256 i = 0; i < classroom.studentAddresses.length; i++) {\r\n            if (classroom.students[classroom.studentAddresses[i]].isVerified) {\r\n                count++;\r\n            }\r\n        }\r\n\r\n        address[] memory markedStudents = new address[](count);\r\n        string[] memory regNos = new string[](count);\r\n        uint256 index = 0;\r\n        for (uint256 i = 0; i < classroom.studentAddresses.length; i++) {\r\n            if (classroom.students[classroom.studentAddresses[i]].isVerified) {\r\n                markedStudents[index] = classroom.studentAddresses[i];\r\n                regNos[index] = classroom.students[classroom.studentAddresses[i]].regNo;\r\n                index++;\r\n            }\r\n        }\r\n        return (markedStudents, regNos);\r\n    }\r\n}\r\n",
  "sourcePath": "C:\\Users\\angad\\attendance-verification-sol\\contracts\\SimpleAttendance.sol",
  "compiler": {
    "name": "solc",
    "version": "0.8.0+commit.c7dfd78e.Emscripten.clang"
  },
  "schemaVersion": "3.4.16",
  "updatedAt": "2024-12-13T11:05:52.585Z",
  "networkType": "ethereum",
  "devdoc": {
    "kind": "dev",
    "methods": {},
    "version": 1
  },
  "userdoc": {
    "kind": "user",
    "methods": {},
    "version": 1
  }
}