{
  "contractName": "AttendanceSystem",
  "abi": [
    {
      "anonymous": false,
      "inputs": [
        {
          "indexed": false,
          "internalType": "uint256",
          "name": "classId",
          "type": "uint256"
        },
        {
          "indexed": false,
          "internalType": "address",
          "name": "studentAddress",
          "type": "address"
        },
        {
          "indexed": false,
          "internalType": "uint256",
          "name": "timestamp",
          "type": "uint256"
        }
      ],
      "name": "AttendanceMarked",
      "type": "event"
    },
    {
      "anonymous": false,
      "inputs": [
        {
          "indexed": false,
          "internalType": "uint256",
          "name": "classId",
          "type": "uint256"
        },
        {
          "indexed": false,
          "internalType": "string",
          "name": "className",
          "type": "string"
        }
      ],
      "name": "ClassroomCreated",
      "type": "event"
    },
    {
      "anonymous": false,
      "inputs": [
        {
          "indexed": false,
          "internalType": "uint256",
          "name": "classId",
          "type": "uint256"
        },
        {
          "indexed": false,
          "internalType": "address",
          "name": "studentAddress",
          "type": "address"
        },
        {
          "indexed": false,
          "internalType": "string",
          "name": "name",
          "type": "string"
        },
        {
          "indexed": false,
          "internalType": "string",
          "name": "regNo",
          "type": "string"
        }
      ],
      "name": "StudentAdded",
      "type": "event"
    },
    {
      "inputs": [],
      "name": "classroomCount",
      "outputs": [
        {
          "internalType": "uint256",
          "name": "",
          "type": "uint256"
        }
      ],
      "stateMutability": "view",
      "type": "function",
      "constant": true
    },
    {
      "inputs": [
        {
          "internalType": "uint256",
          "name": "",
          "type": "uint256"
        }
      ],
      "name": "classrooms",
      "outputs": [
        {
          "internalType": "string",
          "name": "className",
          "type": "string"
        },
        {
          "internalType": "uint256",
          "name": "attendanceCount",
          "type": "uint256"
        }
      ],
      "stateMutability": "view",
      "type": "function",
      "constant": true
    },
    {
      "inputs": [
        {
          "internalType": "string",
          "name": "_className",
          "type": "string"
        }
      ],
      "name": "createClassroom",
      "outputs": [],
      "stateMutability": "nonpayable",
      "type": "function"
    },
    {
      "inputs": [
        {
          "internalType": "uint256",
          "name": "_classId",
          "type": "uint256"
        },
        {
          "internalType": "string",
          "name": "_name",
          "type": "string"
        },
        {
          "internalType": "string",
          "name": "_regNo",
          "type": "string"
        }
      ],
      "name": "addStudentToClass",
      "outputs": [],
      "stateMutability": "nonpayable",
      "type": "function"
    },
    {
      "inputs": [
        {
          "internalType": "uint256",
          "name": "_classId",
          "type": "uint256"
        },
        {
          "internalType": "address",
          "name": "_student",
          "type": "address"
        }
      ],
      "name": "markAttendance",
      "outputs": [],
      "stateMutability": "nonpayable",
      "type": "function"
    },
    {
      "inputs": [
        {
          "internalType": "uint256",
          "name": "_classId",
          "type": "uint256"
        }
      ],
      "name": "getAttendanceCount",
      "outputs": [
        {
          "internalType": "uint256",
          "name": "",
          "type": "uint256"
        }
      ],
      "stateMutability": "view",
      "type": "function",
      "constant": true
    },
    {
      "inputs": [
        {
          "internalType": "uint256",
          "name": "_classId",
          "type": "uint256"
        },
        {
          "internalType": "address",
          "name": "_student",
          "type": "address"
        }
      ],
      "name": "getLastAttendanceTime",
      "outputs": [
        {
          "internalType": "uint256",
          "name": "",
          "type": "uint256"
        }
      ],
      "stateMutability": "view",
      "type": "function",
      "constant": true
    },
    {
      "inputs": [
        {
          "internalType": "uint256",
          "name": "_classId",
          "type": "uint256"
        }
      ],
      "name": "getClassroom",
      "outputs": [
        {
          "internalType": "string",
          "name": "",
          "type": "string"
        },
        {
          "internalType": "address[]",
          "name": "",
          "type": "address[]"
        }
      ],
      "stateMutability": "view",
      "type": "function",
      "constant": true
    },
    {
      "inputs": [
        {
          "internalType": "uint256",
          "name": "_classId",
          "type": "uint256"
        }
      ],
      "name": "getMarkedAttendanceStudents",
      "outputs": [
        {
          "internalType": "address[]",
          "name": "",
          "type": "address[]"
        }
      ],
      "stateMutability": "view",
      "type": "function",
      "constant": true
    }
  ],
  "bytecode": "0x608060405234801561001057600080fd5b506115c3806100206000396000f3fe608060405234801561001057600080fd5b50600436106100935760003560e01c806360e481051161006657806360e48105146101315780637dc9bd3b1461014d578063a02299431461017d578063b65c8b06146101ad578063eb7546c6146101cb57610093565b8063086eafae146100985780631ae4815e146100c95780631e7884ee146100e5578063241dcb3e14610115575b600080fd5b6100b260048036038101906100ad9190610e7a565b6101fc565b6040516100c0929190611179565b60405180910390f35b6100e360048036038101906100de9190610ea3565b6102a8565b005b6100ff60048036038101906100fa9190610e7a565b61042c565b60405161010c9190611209565b60405180910390f35b61012f600480360381019061012a9190610edf565b61048f565b005b61014b60048036038101906101469190610e39565b6106af565b005b61016760048036038101906101629190610e7a565b61073c565b6040516101749190611120565b60405180910390f35b61019760048036038101906101929190610ea3565b610ad7565b6040516101a49190611209565b60405180910390f35b6101b5610b7b565b6040516101c29190611209565b60405180910390f35b6101e560048036038101906101e09190610e7a565b610b81565b6040516101f3929190611142565b60405180910390f35b600060205280600052604060002060009150905080600001805461021f90611446565b80601f016020809104026020016040519081016040528092919081815260200182805461024b90611446565b80156102985780601f1061026d57610100808354040283529160200191610298565b820191906000526020600020905b81548152906001019060200180831161027b57829003601f168201915b5050505050908060030154905082565b60015482106102ec576040517f08c379a00000000000000000000000000000000000000000000000000000000081526004016102e3906111a9565b60405180910390fd5b6000806000848152602001908152602001600020905060008160010160008473ffffffffffffffffffffffffffffffffffffffff1673ffffffffffffffffffffffffffffffffffffffff168152602001908152602001600020905060008160020154148061036c5750620151808160020154426103699190611394565b10155b6103ab576040517f08c379a00000000000000000000000000000000000000000000000000000000081526004016103a2906111c9565b60405180910390fd5b42816002018190555060018160030160006101000a81548160ff0219169083151502179055508160030160008154809291906103e690611478565b91905055507f58db8ff11b1f2ad89b5a611a7f0c48c73c8579db530ad0fd39df6523bc86726184844260405161041e93929190611277565b60405180910390a150505050565b60006001548210610472576040517f08c379a0000000000000000000000000000000000000000000000000000000008152600401610469906111a9565b60405180910390fd5b600080838152602001908152602001600020600301549050919050565b60015483106104d3576040517f08c379a00000000000000000000000000000000000000000000000000000000081526004016104ca906111a9565b60405180910390fd5b600082511180156104e5575060008151115b610524576040517f08c379a000000000000000000000000000000000000000000000000000000000815260040161051b906111e9565b60405180910390fd5b60008060008581526020019081526020016000209050604051806080016040528084815260200183815260200160008152602001600015158152508160010160003373ffffffffffffffffffffffffffffffffffffffff1673ffffffffffffffffffffffffffffffffffffffff16815260200190815260200160002060008201518160000190805190602001906105bc929190610d04565b5060208201518160010190805190602001906105d9929190610d04565b506040820151816002015560608201518160030160006101000a81548160ff02191690831515021790555090505080600201339080600181540180825580915050600190039060005260206000200160009091909190916101000a81548173ffffffffffffffffffffffffffffffffffffffff021916908373ffffffffffffffffffffffffffffffffffffffff1602179055507fb37a79ec4cb4ca7eb517cbed84b2201d6478797a9ebc4a4987f2c4c0dc4eddc4843385856040516106a19493929190611224565b60405180910390a150505050565b80600080600154815260200190815260200160002060000190805190602001906106da929190610d04565b50600160008154809291906106ee90611478565b91905055507f9a1c9f10d6ee756c0a71f88b8991db99f6866f27ae438706a3ea95076df295db600180546107229190611394565b826040516107319291906112ae565b60405180910390a150565b60606001548210610782576040517f08c379a0000000000000000000000000000000000000000000000000000000008152600401610779906111a9565b60405180910390fd5b600080600084815260200190815260200160002090506000805b826002018054905081101561088a578260010160008460020183815481106107ed577f4e487b7100000000000000000000000000000000000000000000000000000000600052603260045260246000fd5b9060005260206000200160009054906101000a900473ffffffffffffffffffffffffffffffffffffffff1673ffffffffffffffffffffffffffffffffffffffff1673ffffffffffffffffffffffffffffffffffffffff16815260200190815260200160002060030160009054906101000a900460ff161561087757818061087390611478565b9250505b808061088290611478565b91505061079c565b5060008167ffffffffffffffff8111156108cd577f4e487b7100000000000000000000000000000000000000000000000000000000600052604160045260246000fd5b6040519080825280602002602001820160405280156108fb5781602001602082028036833780820191505090505b5090506000805b8460020180549050811015610aca57846001016000866002018381548110610953577f4e487b7100000000000000000000000000000000000000000000000000000000600052603260045260246000fd5b9060005260206000200160009054906101000a900473ffffffffffffffffffffffffffffffffffffffff1673ffffffffffffffffffffffffffffffffffffffff1673ffffffffffffffffffffffffffffffffffffffff16815260200190815260200160002060030160009054906101000a900460ff1615610ab757846002018181548110610a0a577f4e487b7100000000000000000000000000000000000000000000000000000000600052603260045260246000fd5b9060005260206000200160009054906101000a900473ffffffffffffffffffffffffffffffffffffffff16838381518110610a6e577f4e487b7100000000000000000000000000000000000000000000000000000000600052603260045260246000fd5b602002602001019073ffffffffffffffffffffffffffffffffffffffff16908173ffffffffffffffffffffffffffffffffffffffff16815250508180610ab390611478565b9250505b8080610ac290611478565b915050610902565b5081945050505050919050565b60006001548310610b1d576040517f08c379a0000000000000000000000000000000000000000000000000000000008152600401610b14906111a9565b60405180910390fd5b60008084815260200190815260200160002060010160008373ffffffffffffffffffffffffffffffffffffffff1673ffffffffffffffffffffffffffffffffffffffff16815260200190815260200160002060020154905092915050565b60015481565b6060806001548310610bc8576040517f08c379a0000000000000000000000000000000000000000000000000000000008152600401610bbf906111a9565b60405180910390fd5b600080600085815260200190815260200160002090508060000181600201818054610bf290611446565b80601f0160208091040260200160405190810160405280929190818152602001828054610c1e90611446565b8015610c6b5780601f10610c4057610100808354040283529160200191610c6b565b820191906000526020600020905b815481529060010190602001808311610c4e57829003601f168201915b5050505050915080805480602002602001604051908101604052809291908181526020018280548015610cf357602002820191906000526020600020905b8160009054906101000a900473ffffffffffffffffffffffffffffffffffffffff1673ffffffffffffffffffffffffffffffffffffffff1681526020019060010190808311610ca9575b505050505090509250925050915091565b828054610d1090611446565b90600052602060002090601f016020900481019282610d325760008555610d79565b82601f10610d4b57805160ff1916838001178555610d79565b82800160010185558215610d79579182015b82811115610d78578251825591602001919060010190610d5d565b5b509050610d869190610d8a565b5090565b5b80821115610da3576000816000905550600101610d8b565b5090565b6000610dba610db58461130f565b6112de565b905082815260208101848484011115610dd257600080fd5b610ddd848285611404565b509392505050565b600081359050610df48161155f565b92915050565b600082601f830112610e0b57600080fd5b8135610e1b848260208601610da7565b91505092915050565b600081359050610e3381611576565b92915050565b600060208284031215610e4b57600080fd5b600082013567ffffffffffffffff811115610e6557600080fd5b610e7184828501610dfa565b91505092915050565b600060208284031215610e8c57600080fd5b6000610e9a84828501610e24565b91505092915050565b60008060408385031215610eb657600080fd5b6000610ec485828601610e24565b9250506020610ed585828601610de5565b9150509250929050565b600080600060608486031215610ef457600080fd5b6000610f0286828701610e24565b935050602084013567ffffffffffffffff811115610f1f57600080fd5b610f2b86828701610dfa565b925050604084013567ffffffffffffffff811115610f4857600080fd5b610f5486828701610dfa565b9150509250925092565b6000610f6a8383610f76565b60208301905092915050565b610f7f816113c8565b82525050565b610f8e816113c8565b82525050565b6000610f9f8261134f565b610fa98185611372565b9350610fb48361133f565b8060005b83811015610fe5578151610fcc8882610f5e565b9750610fd783611365565b925050600181019050610fb8565b5085935050505092915050565b6000610ffd8261135a565b6110078185611383565b9350611017818560208601611413565b6110208161154e565b840191505092915050565b6000611038601883611383565b91507f436c617373726f6f6d20646f6573206e6f7420657869737400000000000000006000830152602082019050919050565b6000611078602983611383565b91507f417474656e64616e636520616c7265616479206d61726b65642077697468696e60008301527f20323420686f75727300000000000000000000000000000000000000000000006020830152604082019050919050565b60006110de601783611383565b91507f496e76616c69642073747564656e742064657461696c730000000000000000006000830152602082019050919050565b61111a816113fa565b82525050565b6000602082019050818103600083015261113a8184610f94565b905092915050565b6000604082019050818103600083015261115c8185610ff2565b905081810360208301526111708184610f94565b90509392505050565b600060408201905081810360008301526111938185610ff2565b90506111a26020830184611111565b9392505050565b600060208201905081810360008301526111c28161102b565b9050919050565b600060208201905081810360008301526111e28161106b565b9050919050565b60006020820190508181036000830152611202816110d1565b9050919050565b600060208201905061121e6000830184611111565b92915050565b60006080820190506112396000830187611111565b6112466020830186610f85565b81810360408301526112588185610ff2565b9050818103606083015261126c8184610ff2565b905095945050505050565b600060608201905061128c6000830186611111565b6112996020830185610f85565b6112a66040830184611111565b949350505050565b60006040820190506112c36000830185611111565b81810360208301526112d58184610ff2565b90509392505050565b6000604051905081810181811067ffffffffffffffff821117156113055761130461151f565b5b8060405250919050565b600067ffffffffffffffff82111561132a5761132961151f565b5b601f19601f8301169050602081019050919050565b6000819050602082019050919050565b600081519050919050565b600081519050919050565b6000602082019050919050565b600082825260208201905092915050565b600082825260208201905092915050565b600061139f826113fa565b91506113aa836113fa565b9250828210156113bd576113bc6114c1565b5b828203905092915050565b60006113d3826113da565b9050919050565b600073ffffffffffffffffffffffffffffffffffffffff82169050919050565b6000819050919050565b82818337600083830152505050565b60005b83811015611431578082015181840152602081019050611416565b83811115611440576000848401525b50505050565b6000600282049050600182168061145e57607f821691505b60208210811415611472576114716114f0565b5b50919050565b6000611483826113fa565b91507fffffffffffffffffffffffffffffffffffffffffffffffffffffffffffffffff8214156114b6576114b56114c1565b5b600182019050919050565b7f4e487b7100000000000000000000000000000000000000000000000000000000600052601160045260246000fd5b7f4e487b7100000000000000000000000000000000000000000000000000000000600052602260045260246000fd5b7f4e487b7100000000000000000000000000000000000000000000000000000000600052604160045260246000fd5b6000601f19601f8301169050919050565b611568816113c8565b811461157357600080fd5b50565b61157f816113fa565b811461158a57600080fd5b5056fea2646970667358221220225508a4b2f0833d1aadfd0948778505c6cb04c974e30a6a3f917c1e7b15de2f64736f6c63430008000033",
  "immutableReferences": {},
  "source": "// SPDX-License-Identifier: MIT\r\npragma solidity ^0.8.0;\r\n\r\ncontract AttendanceSystem {\r\n    struct Student {\r\n        string name;\r\n        string regNo;\r\n        uint256 lastAttendanceTime;\r\n        bool isVerified;\r\n    }\r\n\r\n    struct Classroom {\r\n        string className;\r\n        mapping(address => Student) students;\r\n        address[] studentAddresses;\r\n        uint256 attendanceCount;\r\n    }\r\n\r\n    mapping(uint256 => Classroom) public classrooms;\r\n    uint256 public classroomCount;\r\n\r\n    event ClassroomCreated(uint256 classId, string className);\r\n    event StudentAdded(uint256 classId, address studentAddress, string name, string regNo);\r\n    event AttendanceMarked(uint256 classId, address studentAddress, uint256 timestamp);\r\n\r\n    // Create Classroom\r\n    function createClassroom(string memory _className) public {\r\n        classrooms[classroomCount].className = _className;\r\n        classroomCount++;\r\n        emit ClassroomCreated(classroomCount - 1, _className);\r\n    }\r\n\r\n    // Add student to classroom\r\n    function addStudentToClass(uint256 _classId, string memory _name, string memory _regNo) public {\r\n        require(_classId < classroomCount, \"Classroom does not exist\");\r\n        require(bytes(_name).length > 0 && bytes(_regNo).length > 0, \"Invalid student details\");\r\n        \r\n        Classroom storage classroom = classrooms[_classId];\r\n        classroom.students[msg.sender] = Student(_name, _regNo, 0, false);\r\n        classroom.studentAddresses.push(msg.sender);\r\n\r\n        emit StudentAdded(_classId, msg.sender, _name, _regNo);\r\n    }\r\n\r\n    // Mark attendance for student\r\n    function markAttendance(uint256 _classId, address _student) public {\r\n        require(_classId < classroomCount, \"Classroom does not exist\");\r\n        Classroom storage classroom = classrooms[_classId];\r\n        Student storage student = classroom.students[_student];\r\n        \r\n        require(student.lastAttendanceTime == 0 || block.timestamp - student.lastAttendanceTime >= 1 days, \"Attendance already marked within 24 hours\");\r\n        student.lastAttendanceTime = block.timestamp;\r\n        student.isVerified = true;\r\n        \r\n        classroom.attendanceCount++;\r\n        emit AttendanceMarked(_classId, _student, block.timestamp);\r\n    }\r\n\r\n    // Get attendance count for classroom\r\n    function getAttendanceCount(uint256 _classId) public view returns (uint256) {\r\n        require(_classId < classroomCount, \"Classroom does not exist\");\r\n        return classrooms[_classId].attendanceCount;\r\n    }\r\n\r\n    // Get last attendance time for student\r\n    function getLastAttendanceTime(uint256 _classId, address _student) public view returns (uint256) {\r\n        require(_classId < classroomCount, \"Classroom does not exist\");\r\n        return classrooms[_classId].students[_student].lastAttendanceTime;\r\n    }\r\n\r\n    // Get Classroom details\r\n    function getClassroom(uint256 _classId) public view returns (string memory, address[] memory) {\r\n        require(_classId < classroomCount, \"Classroom does not exist\");\r\n        Classroom storage classroom = classrooms[_classId];\r\n        return (classroom.className, classroom.studentAddresses);\r\n    }\r\n\r\n    function getMarkedAttendanceStudents(uint256 _classId) public view returns (address[] memory) {\r\n        require(_classId < classroomCount, \"Classroom does not exist\");\r\n        Classroom storage classroom = classrooms[_classId];\r\n\r\n        uint256 count = 0;\r\n        for (uint256 i = 0; i < classroom.studentAddresses.length; i++) {\r\n            if (classroom.students[classroom.studentAddresses[i]].isVerified) {\r\n                count++;\r\n            }\r\n        }\r\n\r\n        address[] memory markedStudents = new address[](count);\r\n        uint256 index = 0;\r\n        for (uint256 i = 0; i < classroom.studentAddresses.length; i++) {\r\n            if (classroom.students[classroom.studentAddresses[i]].isVerified) {\r\n                markedStudents[index] = classroom.studentAddresses[i];\r\n                index++;\r\n            }\r\n        }\r\n        return markedStudents;\r\n    }\r\n\r\n}\r\n",
  "sourcePath": "C:\\Users\\angad\\attendance-verification-sol\\contracts\\SimpleAttendance.sol",
  "compiler": {
    "name": "solc",
    "version": "0.8.0+commit.c7dfd78e.Emscripten.clang"
  },
  "schemaVersion": "3.4.16",
  "updatedAt": "2024-11-02T08:15:38.734Z",
  "networkType": "ethereum",
  "devdoc": {
    "kind": "dev",
    "methods": {},
    "version": 1
  },
  "userdoc": {
    "kind": "user",
    "methods": {},
    "version": 1
  }
}